:020000040000fa
:080000000002040000000000f2
:020000040000fa
:10000800d6020000d6020000d6020000d602000088
:10001800d6020000d6020000d6020000d602000078
:10002800d6020000d6020000d60200004e1d0000d5
:10003800d6020000d6020000d6020000841e00008e
:10004800d6020000d6020000d6020000d602000048
:10005800d6020000d6020000d6020000d602000038
:10006800d6020000d6020000d6020000d602000028
:10007800d6020000d6020000d6020000d602000018
:10008800d6020000d6020000d6020000d602000008
:10009800d6020000d6020000d6020000d6020000f8
:1000a800d6020000d6020000d6020000d6020000e8
:1000b800d6020000d6020000d6020000d6020000d8
:1000c800d6020000d6020000d6020000d6020000c8
:1000d800d6020000d6020000d6020000d6020000b8
:1000e800d6020000f20e0000d6020000d602000080
:1000f800d6020000d6020000d6020000d602000098
:10010800d6020000d6020000d6020000d602000087
:10011800d6020000d6020000d6020000d602000077
:10012800d6020000d6020000d6020000d602000067
:10013800d6020000d6020000d6020000d602000057
:10014800d6020000d6020000d6020000d602000047
:10015800d6020000d6020000d6020000d602000037
:10016800d6020000d6020000d6020000d602000027
:10017800d6020000d6020000d6020000d602000017
:10018800d6020000d6020000d6020000d602000007
:10019800d6020000d6020000d6020000d6020000f7
:1001a800d6020000d6020000d6020000d6020000e7
:1001b800d6020000d6020000d6020000d6020000d7
:1001c800d6020000d6020000d6020000d6020000c7
:1001d800d6020000d6020000d6020000d6020000b7
:1001e800d6020000d6020000d6020000d6020000a7
:0801f800d6020000d60200004f
:020000040000fa
:10020800d6020000d6020000d6020000d602000086
:10021800d6020000d6020000d6020000d602000076
:10022800d6020000d6020000d60200004e1d0000d3
:10023800d6020000d6020000d6020000841e00008c
:10024800d6020000d6020000d6020000d602000046
:10025800d6020000d6020000d6020000d602000036
:10026800d6020000d6020000d6020000d602000026
:10027800d6020000d6020000d6020000d602000016
:10028800d6020000d6020000d6020000d602000006
:10029800d6020000d6020000d6020000d6020000f6
:1002a800d6020000d6020000d6020000d6020000e6
:1002b800d6020000d6020000d6020000d6020000d6
:1002c800d6020000d6020000d6020000d6020000c6
:1002d800d6020000d6020000d6020000d6020000b6
:1002e800d6020000f20e0000d6020000d60200007e
:1002f800d6020000d6020000d6020000d602000096
:10030800d6020000d6020000d6020000d602000085
:10031800d6020000d6020000d6020000d602000075
:10032800d6020000d6020000d6020000d602000065
:10033800d6020000d6020000d6020000d602000055
:10034800d6020000d6020000d6020000d602000045
:10035800d6020000d6020000d6020000d602000035
:10036800d6020000d6020000d6020000d602000025
:10037800d6020000d6020000d6020000d602000015
:10038800d6020000d6020000d6020000d602000005
:10039800d6020000d6020000d6020000d6020000f5
:1003a800d6020000d6020000d6020000d6020000e5
:1003b800d6020000d6020000d6020000d6020000d5
:1003c800d6020000d6020000d6020000d6020000c5
:1003d800d6020000d6020000d6020000d6020000b5
:1003e800d6020000d6020000d6020000d6020000a5
:0803f800d6020000d60200004d
:020000040000fa
:100400004f8720000e7f22000e01880000000000b0
:10041000000020000000e000020032000001200087
:10042000200288000c000700a0f821000100200035
:100430000f000700000020000000e0000200320072
:100440000000020000000000ac05020000000000f7
:100450000040da000000fe00200020000000e00064
:100460000200320010002000900188000000060009
:10047000a1028800800078000000eb001a0037001d
:10048000e280400054a0b4009101ba00e280400034
:1004900054a0b4009102ba00e280400054a0b4001d
:1004a0000002eb00472bde00f507b200a601880032
:1004b000602ce10008003a000049eb000201e8006e
:1004c000020039003420ec0002f0a0008301e900b2
:1004d000f9ff3e00040037006128e100010032000e
:1004e0000082eb00040007001101ba000200e000e6
:1004f000e3ff3a000000060004d0a300e20f490029
:100500001c003900810278003549ba000201e80078
:10051000020039003420ec0002f0a0008301e90061
:100520000f0032002549ba000201e800020039003c
:100530003420ec0002f0a0008301e9000800320042
:100540000400e0000600320015c9ba000201e8000c
:10055000020039003420ec0002f0a0008301e90021
:100560008180e80054a0b4000300e000e2ff3a00fc
:10057000000006009102ba00055978008301e900e5
:10058000f7ff3200c82ade00055978008301e90030
:10059000f3ff32000400e000f1ff320011d9ba008d
:1005a000eeff370000000000000000000040da000d
:1005b0000000fe0003f0a200889fbe008a9fbe00dc
:1005c0008c1f7800be000700c50033006450e100b6
:1005d0004f0032006420e1005200320003826c00c0
:1005e00007003b000905d0000306d000820f54002d
:1005f0000c065d000200390002003200890178001b
:10060000030678008582550004003d000003fd00cc
:100610008103fd008502ea008b854200840f720091
:1006200002003b0060001000e08018006011b8007c
:100630000005eb007a28e1000a0039000600780086
:10064000c75ddd00f707b200878075002d00370019
:10065000828171000a017800610560008180d1000b
:100660000080d3008502e900f9ff3b00060440004a
:100670008784480002003b0060041400e0841c00f2
:100680000988a300070032008a817100828171000d
:10069000610164008904d1000884d3008b05e8005f
:1006a000170037000978a30013003a000b00e000a0
:1006b000130034008b05e9000804440089844c00d1
:1006c0000a4474000978a3000d003a000b00e00012
:1006d000070034008b05e9000804440089844c00bd
:1006e00001003a000b0020000978a300f7ff320058
:1006f0000001eb0002003700828171000a017800de
:10070000340007000cf0a70001f0a0007d003700c6
:100710006420e10002003a00838f6c007d0033000a
:100720000801be000200be00760037001400200061
:10073000af003700f4ff2f00ad0037000001be000e
:100740004a0007000470a70003f0a1006509b1008a
:10075000160032000d0035006828e1000600350063
:10076000f0ff2f00f1ff27000300e00013003b0023
:1007700001002800000005000000400081804800c2
:100780008502e900fcff3a0008003700f88f4200bc
:1007900002003c008000eb00000005008100d10059
:1007a0000080d3008502e800fcff3a000300e0006f
:1007b00002003b0060001000e0801800000006000e
:1007c0004f89de0082017800a40037006011b80074
:1007d000b200370081002000618055000b003d0011
:1007e0000b00200061fe2f000100e1001d0034001d
:1007f00082817100610164008904d1000884d30002
:100800000000e800faff3a00710020006100640077
:10081000030070000200600009003200610444001f
:10082000e0844c000988a500050032008b05e80033
:100830006808e10002003a008904d1000884d3006e
:10084000f20f20000258e10005003d00c75ddd0009
:10085000f907b200898075000800780000000600e2
:100860000bf827008b00780000000500c70ade00a7
:10087000f107b200f50fb20008003200e1cf4200ec
:10088000020032000170a00024000500810f7000fa
:10089000010032000408050044000500810f7000cb
:1008a00002003a00140005008502e9000000400043
:1008b00081c04800fcff3b000170a000240005003f
:1008c0000004be00e9ff07000003be000405be00ef
:1008d0000200be00e5ff0700844f7500000006001f
:1008e0000200be006450e100050036006420e10013
:1008f000020036000968a30001003a000800be00ab
:100900000160a0004f0678004f05be004f04be00f6
:1009100000000600f0ff2f00f1ff2700f9ff37006d
:10092000889fbe008a9fbe008c1f7800e4ff0700ee
:10093000ebff330003866c006450e10024003200ba
:100940006420e100270032006150e1002200320003
:100950006120e100210032008b854200eb07b100ed
:100960000134b800003ab8000804420089844a0003
:10097000013ab8000030b8008880400009014a0000
:10098000040033000000400081804800020149005b
:100990008b05e900c909dd00830170000100320008
:1009a00013002000c814de004814dd004709de00f3
:1009b0001200b200c808de000884700085ff07003e
:1009c00001f0a1000cf0a70001f0a000cdff37005e
:1009d0006120e100cfff32000801be000200be002e
:1009e000f7ff37006150e100fcff3a00c9ff370014
:1009f000889fbe008a9fbe00841f7800b0ff07005a
:100a00004f00780011003300f0ff2f00838f6c003f
:100a100006003b00040565000a00a7000800370037
:100a200009f0a6001000200008003700820f5400d3
:100a3000838f5c00030039001000200001003e009d
:100a40000000200009f0a7000000ea004f05be00ea
:100a50004f04be000000e00000000600881f780080
:100a6000030478000300e00007003d006000100070
:100a7000e080180060011900e081190002003b00cd
:100a800001f02d00030037000400070008f0a70064
:100a900001f0a0004f04780000000600889fbe000f
:100aa0008a9fbe00008270000402710004827100ff
:100ab000260032000004be000200be006011b80033
:100ac0006b092000950220000182cf000a00390046
:100ad0000541b1000082cf00070039000541b10097
:100ae0000982cf00040039000541b1000882cf001f
:100af000010039000541b1000542520012003200e8
:100b00000a003b0082817100610164008100d10014
:100b10000080d3008984d3000884d3008b05e800cb
:100b20000442e800f7ff3a000700370008044400d9
:100b300089844c0000004800818048008b05e90052
:100b40000442e900f9ff3a0022ff07004f05be000a
:080b50004f04be000000060086
:020000040000fa
:100b58000200fa00760d07000000eb00000f780095
:100b680020002000a50007008261a9005000200095
:100b7800a20007008ca1a900200020009f00070008
:100b88008ce1a900100020009c0007008cc1a9007e
:100b980010002000990007009103070080408000a2
:100ba8000000e0005b0032001028ef00a086200063
:100bb800104078000004e00021003a0051010700cd
:100bc800800c20008d000700b086200010407800bf
:100bd8000080fb007d01070010002000870007004f
:100be800e0862000104078000080fb002d020700fe
:100bf8001000200081000700d086200010407800f7
:100c08000080fb00fa010700100020007b000700ad
:100c1800c0862000104078000080fb00c701070054
:100c28001000200075000700f086200010407800b2
:100c38000080fb0048020700690307003500370001
:100c4800a0862000104078000004e0003100320047
:100c5800a0862000104078000080fb00e40f5000c0
:100c680019003200e40f500007003c00e20f50006a
:100c78000f003200e20f500011003c00e10f50005d
:100c88000800320023003700e60f5000120032003f
:100c9800e60f50000e003500e70f50001b00320031
:100ca8001c003700e4030700cc02070019003700d6
:100cb80060d2200000000100c802070015003700bc
:100cc8001001070013003700560207001100370013
:100cd800630207000f0037000a010700800c20009c
:100ce80046000700602f2000a0138800a000200005
:100cf800420007000f03070001030700f302070083
:100d0800e5020700b502070002003700b30207003a
:100d180000000000100c8000610060000000e0008e
:100d28000c003200404180000000e800404188008b
:100d380040418000ea0f500002003a0010002000f5
:100d480040418800a00020002c000700404180009e
:100d580033000700100c8000640060000000e00011
:100d68001f0032008cc1a80050002000230007009b
:100d78008cc1a90030002000200007008cc1a80009
:100d8800200020001d0007008cc1a90010002000d1
:100d98001a0007008cc1a8004041800085000700a8
:100da8008cc1a80050002000140007008cc1a900c5
:100db80030002000110007008cc1a800200020008e
:100dc8000e0007008cc1a900100020000b000700ce
:100dd8008cc1a80010002000080007008cc1a900e1
:100de80020002000050007008cc1a800500020004a
:100df800020007008cc1a90068ff37000200fa0052
:100e0800000f78000c28ef00000000006040800010
:100e18009e0f5000fdff34000080fa00000006001d
:100e28000200fa00000f78001e007800e50f50005d
:100e380034003200e50f50000c003c00e20f500077
:100e48001e003200e20f500003003c00e10f50008a
:100e58000f00320055003700e30f50001c0032002d
:100e6800e40f50001f00320050003700e70f500019
:100e780034003200e70f50002a003500e80f500018
:100e880034003200e90f50003d00320047003700bf
:100e98008ce1a90010002000d8ff07008ca1a90050
:100ea80010002000d5ff07008221a80010002000b4
:100eb800d2ff07008261a9003c0037008221a90007
:100ec80010002000cdff07008261a800370037001e
:100ed8008221a80010002000c8ff07008261a80036
:100ee800320037008221a90010002000c3ff07004c
:100ef8008261a90010002000c0ff07008ce1a80053
:100f08002a0037008221a80010002000bbff07003c
:100f18008261a90010002000b8ff07008ce1a8003a
:100f2800220037008221a90010002000b3ff07002b
:100f38008261a80010002000b0ff07008ce1a80023
:100f48001a0037008221a80010002000abff07001c
:100f5800160037008221a90010002000a7ff070013
:100f68008261a90010002000a4ff07008ce1a900fd
:100f780010002000a1ff07008ca1a8000b0037007b
:100f88008221a800100020009cff07008261a900b0
:100f98001000200099ff07008ce1a9001000200034
:100fa80096ff07008ca1a800000000000080fa004e
:100fb800000006000200fa00000f78001e0078000a
:100fc800e40f50001e003200e40f500007003c0000
:100fd800e20f500012003200e20f500014003c00f3
:100fe800e10f50000a00320027003700e60f5000da
:100ff8001b003200e60f500015003500e70f5000c7
:101008001b003200e80f50001d0032001e003700a0
:10101800210207001000200078ff07001c0037009d
:101028002a0207001000200074ff0700180037008c
:10103800330207001000200070ff0700140037007b
:101048003c020700100020006cff0700100037006a
:10105800450207001000200068ff07000c00370059
:101068009f0107001000200064ff070008003700f8
:10107800240007001000200060ff0700040037006c
:10108800ed0207000200370095010700000000008c
:101098000080fa00000006000000fa005049200015
:1010a800a01388002000200054ff07000020200023
:1010b800f01388002000200050ff07005050200047
:1010c80040148800200020004cff0700003020005a
:1010d800901488002000200048ff0700505020008e
:1010e800f01388002000200044ff07000050200073
:1010f800901488004006200040ff07000080fa0096
:10110800000006000000fa00000e2000a01388006e
:101118002000200039ff0700602f2000901488006d
:101128002000200035ff0700f01f2000f013880082
:101138002000200031ff0700003220004014880002
:10114800200020002dff070000322000f013880047
:101158005000200029ff07000080fa000000060068
:101168000000fa00000e2000a013880020002000d4
:1011780022ff07000015200090148800200020009e
:101188001eff0700000e2000f0138800200020003a
:101198001aff0700000e200090148800200020008d
:1011a80016ff0700000e20004014880020002000d1
:1011b80012ff0700000e2000f013880050002000e6
:1011c8000eff07000080fa00000006000800fa0081
:1011d800881f780030079800a01380008000eb007b
:1011e80078fd0700008fbe003e009000cf80de0033
:1011f80071fd070072e72b00b30b2400c6fd070042
:101208000200200003362400e9fc070049fd07001e
:10121800200798002e009000cf80de0066fd0700b2
:1012280018c0b3001e01be003efd07000000e0002c
:10123800010035000044eb000804e000180032000b
:101248000b0037001e00be003afd070000007800c2
:10125800a0138800f0002000f101070072e72b00be
:10126800b30b24001e00be00d0fc0700008fbe0098
:101278002e009000cf80de004ffd070018c0b3009d
:101288001e01be0027fd07000000e0000100340039
:101298000044eb000804e000eaff3a0022003700af
:1012a8002e009000cf80de0043fd070018c0b30079
:1012b8001e01be001dfd07000000e00001003c000b
:1012c8000044eb000804e000170032000b00370070
:1012d8001e00be0017fd070000007800a01388005c
:1012e800f0002000ce01070072e72b00b30b2400aa
:1012f8001e00be00aefc0700008fbe002e0090004e
:10130800cf80de002cfd070018c0b3001e01be0010
:1013180006fd07000000e00001003d000044eb006e
:101328000804e000eaff3a002e009000a0138800ad
:101338004f0478000080fa00000006000800fa0058
:1013480030079800f0138000000f78003e009000ee
:101358006600b90000007800f00eb0001007980091
:101368001e0090001e005000200798001e009000ec
:101378009e007800808f50000c0034000600370073
:101388001e007800f0138800a0002000a4010700c8
:101398009e007800668f50001e0090009e00780026
:1013a800808f5000f6ff3d000f0037001e009000b0
:1013b8009e007800808f50000b003d00060037002b
:1013c8001e007800f0138800a00020009401070098
:1013d8009e007800668f40001e0090009e007800f6
:1013e800808f5000f6ff34000080fa0000000600ed
:1013f8000800fa003007980040148000000f7800b9
:101408003e0090006600b90000007800f00eb000c1
:10141800100798001e0090001e005000200798003a
:101428001e0090009e007800808f50000c00340051
:10143800060037001e007800401488004000200095
:10144800770107009e007800668f50001e0090000c
:101458009e007800808f5000f6ff3d000f00370097
:101468001e0090009e007800808f50000b003d0009
:10147800060037001e007800401488004000200055
:10148800670107009e007800668f40001e009000ec
:101498009e007800808f5000f6ff34000080fa002c
:1014a800000006000800fa00300798009014800039
:1014b800000f78003e0090006600b9000000780038
:1014c800f00eb000100798001e0090001e0050009b
:1014d800200798001e0090009e007800808f500022
:1014e8000c003400060037001e00780090148800b5
:1014f800300020004a0107009e007800668f5000e7
:101508001e0090009e007800808f5000f6ff3d007e
:101518000f0037001e0090009e007800808f50005a
:101528000b003d00060037001e007800901488006c
:10153800300020003a0107009e007800668f4000c6
:101548001e0090009e007800808f5000f6ff340047
:101558000080fa00000006000a00fa004007980020
:10156800e0148000000f78004e0090006600b9007b
:10157800000078000012b000100798001e009000cc
:101588001e00500020079800ae009000a000200028
:1015980000017800110009008200d8003007980087
:1015a8001e0090009e007800808f50000c003400d0
:1015b800060037003e0090001e0f40001e00780015
:1015c800e014880030002000150107001e0090007c
:1015d8009e007800808f5000f6ff3d000f00370016
:1015e8001e0090009e007800808f50000b003d0088
:1015f800060037003e0090001e0f40001e007800d5
:10160800e014880030002000050107001e0090004b
:101618009e007800808f5000f6ff34000080fa00aa
:10162800000006000000fa000500370030158000b1
:101638000000e9003015880010002000f8000700bd
:1016480031158000f0162000808f5000f7ff3e0013
:1016580050172000301588000080fa0000000600ae
:101668000000fa0050492000301588000080fa0078
:10167800000006000000fa0050002000dffd07000f
:10168800602f2000a013880010002000dbfd070059
:10169800000e2000f013880010002000d7fd07007e
:1016a800f00e20004014880010002000d3fd070031
:1016b800005020009014880010002000cffd070083
:1016c80050482000e014880010002000cbfd0700df
:1016d80000482000301588000080fa00000006004d
:1016e8000000fa00800c2000e2ff0700800c2000b8
:1016f800c2fd0700602f200040148800a0002000d1
:10170800befd070000202000f01388001000200014
:10171800bafd070000202000901488001000200067
:10172800b6fd070000112000e0148800bdff070087
:10173800e0012000b1fd070050482000e0148800b7
:10174800c7ff070010002000acfd070000112000b3
:10175800e0148800b3ff0700e0012000a7fd0700a0
:1017680050482000e0148800bdff0700e001200079
:10177800a2fd070000112000e0148800a9ff07005f
:10178800a00020009dfd070050482000e0148800bc
:10179800b3ff07001000200098fd0700001120008b
:1017a800e01488009fff0700a000200093fd0700b9
:1017b80050482000e0148800a9ff0700a00020007e
:1017c8008efd07004ffe0700800c20008bfd0700f0
:1017d800a8ff07000080fa00000006000000fa00d9
:1017e800602f2000a01388001000200083fd070050
:1017f8000050200040148800100020007ffd0700e2
:1018080000502000f0138800100020007bfd070026
:1018180000112000901488001000200077fd0700b8
:1018280000112000e01488001000200073fd07005c
:101838000080fa00000006000000fa00a00d200059
:10184800a013880005003700a01380007000400036
:10185800a01388001000200068fd0700a113800075
:1018680000492000808f5000f7ff36000500370040
:10187800a013800070005000a01388001000200002
:101888005efd0700a1138000f00d2000808f50003e
:10189800f7ff3e00e9ff37000000fa000000eb0008
:1018a8004afe07004006200054fd0700400b2000b8
:1018b80046fe07004006200050fd0700a005200056
:1018c80042fe07000080fa00000006000000fa004f
:1018d8000000eb0099fe07004006200047fd0700c6
:1018e800400b200095fe07004006200043fd07003e
:1018f800a005200091fe07000080fa000000060005
:101908000000fa000000eb00b9fe070040062000c6
:101918003afd0700400b2000b5fe070040062000f6
:1019280036fd0700a0052000b1fe07000080fa0080
:10193800000006000000fa000000eb00d9fe0700d6
:10194800400620002dfd0700400b2000d5fe0700b3
:101958004006200029fd0700a0052000d1fe070051
:101968000080fa00000006000000fa0000112000c4
:10197800e014880005003700e01480007000400083
:10198800e0148800100020001cfd0700e11480000e
:1019980050462000808f5000f7ff36000080fa0084
:1019a800000006000000fa00004020003015880002
:1019b8000500370030158000700050003015880091
:1019c800100020000dfd0700311580004027200081
:1019d800808f5000f7ff3e000080fa0000000600ec
:1019e8000200fa000000eb00000f78000500370045
:1019f800a08620001e00400011c0b30001487800f6
:101a08001e0fe8001e007800e50f5000f8ff3400b4
:101a18000000eb00000f78000080fa0000000600cc
:101a28000200fa00000f78000e28ef000000000006
:101a3800704080009e0f5000fdff34000080fa00c7
:101a4800000006000200fa00aefd07000000eb00ef
:101a5800000f7800e0012000dcfd0700602f200067
:101a6800e01488000000eb00000f78001d0037002c
:101a7800e0012000e1fc0700002520009014880008
:101a8800f0002000ddfc07000032200090148800e0
:101a9800e0012000d9fc07000025200090148800f0
:101aa800f0002000d5fc07000032200090148800c8
:101ab80080022000d1fc0700002520009014880037
:101ac800f0002000cdfc07000032200090148800b0
:101ad800e0012000c9fc07000025200090148800c0
:101ae8001e0fe8001e0078000000e000e0ff340050
:101af80000052000b5fd0700602f20009014880025
:101b08000000eb00000f78001d003700f0002000f7
:101b1800bafc070000152000e0148800f00020003f
:101b2800b6fc070000232000e0148800f000200025
:101b3800b2fc070000152000e0148800f000200027
:101b4800aefc070000232000e0148800f00020000d
:101b5800aafc070000112000e0148800f000200013
:101b6800a6fc070000232000e0148800f0002000f5
:101b7800a2fc070000112000e01488001e0fe800f6
:101b88001e0078000000e000e0ff34000011200093
:101b9800e01488000000eb00000f78001d003700fb
:101ba800f000200095fc0700002520009014880014
:101bb800f000200091fc07000032200090148800fb
:101bc800f00020008dfc07000025200090148800fc
:101bd800f000200089fc07000032200090148800e3
:101be800f000200085fc07000025200090148800e4
:101bf800f000200081fc07000032200090148800cb
:101c0800f00020007dfc07000025200090148800cb
:101c18001e0fe8001e0078000000e000e0ff34001e
:101c280050482000e01488002003200073fc0700bf
:101c38000080fa00000006000000fa008dfe070090
:101c4800200320006dfc07000000eb005ffd07008b
:101c58001000200069fc070050112000f0138800d4
:101c68001000200065fc0700500020003afe070025
:101c7800100420000bfe0700a00020005ffc0700f6
:101c88002003200007fe0700a00020005bfc0700df
:101c98005000200003fe07002003200057fc070027
:101ca80060fe07004006200054fc0700602f20005b
:101cb800901488002003200050fc0700a005200095
:101cc80042fd0700d0022000c9fd07005011200086
:101cd800f0138800d0022000f2fd07000000eb009e
:101ce800c3fd07000000eb00eefd0700800c20009c
:101cf80042fc070000052000eafd0700002520003f
:101d0800f0138800002520004014880040062000b9
:101d18008afd070010092000b5fd0700f00020002b
:101d2800e0fd0700800c200034fc07004cfe070093
:101d3800800c200031fc0700400620002ffc070023
:101d4800602f200090148800a00020002bfc0700c2
:101d5800602f200040148800a000200027fc070006
:101d680000122000e0148800a000200023fc0700d7
:101d780000352000f0138800200320001ffc070016
:101d88000080fa00000006000000fa0000002800a9
:101d980080178800f422ef000001200006010700e8
:101da800f0072000f80007000028ef000000eb0013
:101db800cd0007000000eb00d70007008a20a9002b
:101dc8009a20a8000080fa00000006000000fa002f
:101dd800edff07000080fa00000006003600f8005a
:101de800809fbe00829fbe00849fbe00869fbe006b
:101df8000200fa0000408000e20f50009a00320012
:101e0800e20f500003003900e30f50008900320050
:101e1800a700370081178000004020000080600084
:101e28000000e00005003a00a11780000002200031
:101e3800008060000000e0000a0032008117800086
:101e480000082000008060000000e000210032004f
:101e5800a117800000202000008060000000e00042
:101e68001c003200a0178000640060000000e00041
:101e78000b003a00100020000f01070018e8b70017
:101e8800100020000040880018c8bf000004e000cf
:101e98003800320050178000004f780036003700b5
:101ea8000000eb0004010700204080000000e00073
:101eb8000500320020408000104078000080fb00c0
:101ec80060178800f182a8002000200000408800e8
:101ed8002900370081178000004020000080600042
:101ee8000000e00024003200a1178000000220005a
:101ef800008060000000e0001f003a00a01780008a
:101f0800640060000000e00004003a000a68ef0086
:101f18003000200000408800130037000ac8bf00c6
:101f28000004e0000d0032000000eb00e2000700b2
:101f3800204080000000e0000500320020408000c2
:101f4800104078000080fb0060178800f182a8002c
:101f58002000200000408800030037000a68ef00d6
:101f6800300020000040880050178000004f7800a3
:101f7800010037000000000000408000e10f500021
:101f88004c003a00a1178000000220000080600089
:101f98000000e00049003200a11780000004200082
:101fa800008060000000e0001e003a001040800041
:101fb8000000e0001700320051178000f00f2000e9
:101fc800808f50000f003200a04080005117800021
:101fd80001417800a186200082707800a04080002e
:101fe8000000e800a0408800a0408000e50f5000f5
:101ff80004003400804080000000e8008040880031
:102008001428ef00104080005117800081407800ac
:102018000148780020002000a700070018e8b70052
:102028002900370050178000004f7800f4c2a9003b
:1020380025003700300020009f00070018e8b7008f
:1020480010c0b3000ae8b70018c8bf000004e000d9
:102058000200320050178000004f78001000200066
:102068000040880018003700a117800000002800f1
:10207800008060000000e0000b003a000000eb0068
:102088008d000700204080000000e0000d003200b5
:1020980020408000104078000080fb006017880016
:1020a800f182a800080037000028ef00060037007a
:1020b800ffff3700000000000300370000000000a9
:1020c80001003700000000008a20a9000080fa0003
:1020d8004f03be004f02be004f01be004f00be00be
:1020e8003600f900004006000200fa00000f7800f0
:1020f8009e007800214088000080fa000000060059
:102108000200fa00000f78001e007800f6ff0700b2
:102118000080fa00000006000200fa00000f7800b4
:102128009e007800114088000080fa000000060038
:102138000200fa00000f78001e007800f6ff070082
:102148000080fa00000006000000fa00204080002d
:102158000080fa00000006000000fa00faff0700fd
:102168000080fa00000006000000fa00104080001d
:102178000080fa00000006000000fa00faff0700dd
:102188000080fa00000006000200fa00000f780044
:102198009e007800c11788000080fa000000060041
:1021a8000200fa00000f78001e007800f6ff070012
:1021b8000080fa00000006000200fa00000f780014
:1021c800f00720009e007800808f50000200360043
:1021d800f142a80001003700f142a9000028ef00f1
:1021e8009e007800b11788000080fa000000060001
:1021f8000200fa00000f78001e007800eeff0700ca
:102208000080fa00000006000000fa00204080006c
:102218000000e000060032002040800010407800f6
:102228000080fb0060178800f182a80001003700d9
:10223800000000000080fa00000006000000fa001c
:10224800104080000000e0001800320051178000a4
:10225800f00f2000808f50000f003200a040800057
:102268005117800001417800a18620008270780013
:10227800a04080000000e800a0408800a040800046
:10228800e50f500004003400804080000000e800a2
:10229800804088001428ef0010408000511780000b
:1022a80081407800014878000100370000000000f4
:1022b8000080fa00000006000200fa00000f780013
:1022c8001e007800e10f50000d003200e10f5000b1
:1022d80003003900e20f50000f0032002e003700d3
:1022e80031408000a0822000008040007eff07006f
:1022f800304080000000e8003040880026003700a9
:102308000828ef0010c0b30017e8b700608120006c
:1023180081ff07002000370017c8bf000004e00055
:1023280016003200404080000000e00008003a003b
:1023380016c8bf000080fb004800dd003040880060
:10234800404080000000e80040408800120037004c
:1023580040408000e10f50000e003a0016c8bf0050
:102368008080fb0030408000010070003040880011
:102378000828ef001768ef0007003700304080009a
:102388006281200012417800a182200082707800ca
:10239800010037000000000010c0b3000080fa0000
:1023a800000006000000fa00600021000015880007
:1023b800a222ef0000712200201588005049200059
:1023c80030158800a822ef00001580000040780032
:1023d800674060000080fb00e04088000080fa0051
:1023e800000006000000fa00eeff07000080fa0077
:1023f800000006000000fa004104800000402000b0
:10240800008060000000e000010032008940a9005f
:102418000080fa00000006000000fa00f5ff07003f
:102428000080fa00000006000000fa00e04080008a
:1024380000407800674060000080fb006700600093
:102448000215800081ff2f008100610001007000eb
:10245800001588000080fa00000006000000fa005d
:10246800f1ff07000080fa00000006000000fa00f3
:10247800001580000000a1000010a1000020a100ac
:10248800001588000080fa00000006000000fa002d
:10249800f6ff07000080fa00000006000200fa00bc
:1024a800000f78009e007800311588000080fa003f
:1024b800000006000200fa00000f78001e007800f5
:1024c800f6ff07000080fa00000006000400fa008a
:1024d800000f7800110798009e00780031158800d9
:1024e8009e009000211588000080fa000000060078
:1024f8000400fa00000f7800110798009e00900071
:102508001e007800f1ff07000080fa0000000600b6
:102518000400fa00000f7800110798009e00780068
:10252800311588009e009000211588000080fa006f
:10253800000006000400fa00000f78001107980058
:102548009e0090001e007800f1ff07000080fa004e
:10255800000006000400fa00000f78001107980038
:102568009e007800311588009e0090002115880093
:102578000080fa00000006000400fa00000f78004e
:10258800110798009e0090001e007800f1ff0700d8
:102598000080fa00000006000000fa0040048000f5
:1025a8004a00de00614060000080fb0000f0a700e8
:1025b8000000ea000000ea004f00de00004078005a
:1025c8000080fa00000006000000fa00f2ff070091
:1025d8000080fa00000006000400fa0010079800c6
:1025e8001e009000e10f50000f003200e10f500074
:1025f80003003900e20f5000150032001e003700ba
:10260800001580004400de00614060000080fb008f
:1026180000f0a7000000ea000000ea004f00de001a
:10262800004f780014003700001580004500de00d8
:10263800614060000080fb0000f0a7000000ea0095
:102648000000ea004f00de00004f78000a00370063
:10265800001580004600de00614060000080fb003d
:1026680000f0a7000000ea000000ea004f00de00ca
:10267800004f7800000000001e4078000080fa003b
:10268800000006000200fa00000f78001e00780023
:10269800d1ff07000080fa00000006000200fa00df
:1026a800000f78001e007800e10f5000070032008c
:1026b800e10f500003003900e20f5000050032001e
:1026c80006003700a082a90004003700a0a2a900d4
:1026d80002003700a0c2a900000000000080fa0034
:1026e800000006000200fa00000f78001e007800c3
:1026f800eaff07000080fa00000006000000fa0068
:10270800a2c2a8000080fa00000006000000fa003b
:10271800101580004600de00614060000080fb006c
:1027280000f0a7000000ea000000ea004f00de0009
:10273800004078000080fa00000006000000fa005f
:10274800f2ff07000080fa00000006000000fa000f
:10275800a2c2a9000080fa00000006000000fa00ea
:10276800faff07000080fa00000006000000fa00e7
:1027780060002100b01488009822ef000071220048
:10278800d014880000112000e01488009e22ef0079
:10279800b014800000407800674060000080fb00b3
:1027a800f04088000080fa00000006000000fa00ef
:1027b800eeff07000080fa00000006000000fa00a3
:1027c8004104800000202000008060000000e0003c
:1027d800010032008920a9000080fa0000000600ec
:1027e8000000fa00f5ff07000080fa00000006006c
:1027f8000000fa00f0408000004078006740600068
:102808000080fb0067006000b214800081ff2f0089
:102818008100610001007000b01488000080fa0097
:10282800000006000000fa00f1ff07000080fa002f
:10283800000006000000fa00b01480000000a100ab
:102848000010a1000020a100b01488000080fa0048
:10285800000006000000fa00f6ff07000080fa00fa
:10286800000006000200fa00000f78009e007800c1
:10287800e11488000080fa00000006000200fa0057
:10288800000f78001e007800f6ff07000080fa00ad
:10289800000006000400fa00000f780011079800f5
:1028a8009e007800e11488009e009000d1148800f2
:1028b8000080fa00000006000400fa00000f78000b
:1028c800110798009e0090001e007800f1ff070095
:1028d8000080fa00000006000400fa00000f7800eb
:1028e800110798009e007800e11488009e0090006f
:1028f800d11488000080fa00000006000400fa00e5
:10290800000f7800110798009e0090001e007800c4
:10291800f1ff07000080fa00000006000400fa003a
:10292800000f7800110798009e007800e1148800d5
:102938009e009000d11488000080fa000000060074
:102948000400fa00000f7800110798009e0090001c
:102958001e007800f1ff07000080fa000000060062
:102968000000fa00400480004900de006140600079
:102978000080fb0000f0a7000000ea000000ea0069
:102988004f00de00004078000080fa0000000600da
:102998000000fa00f2ff07000080fa0000000600bd
:1029a8000400fa00100798001e009000e10f500084
:1029b8000f003200e10f500003003900e20f500011
:1029c800150032001e003700b01480004400de00fd
:1029d800614060000080fb0000f0a7000000ea00f2
:1029e8000000ea004f00de00004f780014003700b6
:1029f800b01480004500de00614060000080fb00ec
:102a080000f0a7000000ea000000ea004f00de0026
:102a1800004f78000a003700b01480004600de003e
:102a2800614060000080fb0000f0a7000000ea00a1
:102a38000000ea004f00de00004f780000000000b0
:102a48001e4078000080fa00000006000200fa002c
:102a5800000f78001e007800d1ff07000080fa0000
:102a6800000006000200fa00000f78001e0078003f
:102a7800e10f500007003200e10f50000300390059
:102a8800e20f500005003200060037009682a900c8
:102a98000400370096a2a9000200370096c2a900d8
:102aa800000000000080fa00000006000200fa00a2
:102ab800000f78001e007800eaff07000080fa0087
:102ac800000006000000fa0098c2a8000080fa0082
:102ad800000006000000fa00c01480004600de0076
:102ae800614060000080fb0000f0a7000000ea00e1
:102af8000000ea004f00de00004078000080fa0085
:102b0800000006000000fa00f2ff07000080fa004b
:102b1800000006000000fa0098c2a9000080fa0030
:102b2800000006000000fa00faff07000080fa0023
:102b3800000006000000fa00600021006014880010
:102b48008e22ef00007122008014880000112000fe
:102b5800901488009422ef006014800000407800f0
:102b6800674060000080fb00004188000080fa0098
:102b7800000006000000fa00eeff07000080fa00df
:102b8800000006000000fa00310480000040200028
:102b9800008060000000e000010032008740a900ca
:102ba8000080fa00000006000000fa00f5ff0700a8
:102bb8000080fa00000006000000fa0000418000d2
:102bc80000407800674060000080fb0067006000fc
:102bd8006214800081ff2f008100610001007000f5
:102be800601488000080fa00000006000000fa0067
:102bf800f1ff07000080fa00000006000000fa005c
:102c0800601480000000a1000010a1000020a100b5
:102c1800601488000080fa00000006000000fa0036
:102c2800f6ff07000080fa00000006000200fa0024
:102c3800000f78009e007800911488000080fa0048
:102c4800000006000200fa00000f78001e0078005d
:102c5800f6ff07000080fa00000006000400fa00f2
:102c6800000f7800110798009e00780091148800e2
:102c78009e009000811488000080fa000000060081
:102c88000400fa00000f7800110798009e009000d9
:102c98001e007800f1ff07000080fa00000006001f
:102ca8000400fa00000f7800110798009e007800d1
:102cb800911488009e009000811488000080fa001a
:102cc800000006000400fa00000f780011079800c1
:102cd8009e0090001e007800f1ff07000080fa00b7
:102ce800000006000400fa00000f780011079800a1
:102cf8009e007800911488009e009000811488003e
:102d08000080fa00000006000400fa00000f7800b6
:102d1800110798009e0090001e007800f1ff070040
:102d28000080fa00000006000000fa00300480006d
:102d38004a00de00614060000080fb0000f0a70050
:102d48000000ea000000ea004f00de0000407800c2
:102d58000080fa00000006000000fa00f2ff0700f9
:102d68000080fa00000006000400fa00100798002e
:102d78001e009000e10f50000f003200e10f5000dc
:102d880003003900e20f5000150032001e00370022
:102d9800601480004400de00614060000080fb0099
:102da80000f0a7000000ea000000ea004f00de0083
:102db800004f780014003700601480004500de00e2
:102dc800614060000080fb0000f0a7000000ea00fe
:102dd8000000ea004f00de00004f78000a003700cc
:102de800601480004600de00614060000080fb0047
:102df80000f0a7000000ea000000ea004f00de0033
:102e0800004f7800000000001e4078000080fa00a3
:102e1800000006000200fa00000f78001e0078008b
:102e2800d1ff07000080fa00000006000200fa0047
:102e3800000f78001e007800e10f500007003200f4
:102e4800e10f500003003900e20f50000500320086
:102e5800060037008c82a900040037008ca2a90064
:102e6800020037008cc2a900000000000080fa00b0
:102e7800000006000200fa00000f78001e0078002b
:102e8800eaff07000080fa00000006000000fa00d0
:102e98008ec2a8000080fa00000006000000fa00b8
:102ea800701480004600de00614060000080fb0076
:102eb80000f0a7000000ea000000ea004f00de0072
:102ec800004078000080fa00000006000000fa00c8
:102ed800f2ff07000080fa00000006000000fa0078
:102ee8008ec2a9000080fa00000006000000fa0067
:102ef800faff07000080fa00000006000000fa0050
:102f080060002100101488008422ef000071220064
:102f18003014880000502000401488008a22ef00f6
:102f28001014800000407800674060000080fb00bb
:102f3800104188000080fa00000006000000fa0036
:102f4800eeff07000080fa00000006000000fa000b
:102f58003104800000202000008060000000e000b4
:102f6800010032008720a9000080fa000000060056
:102f78000000fa00f5ff07000080fa0000000600d4
:102f88000000fa00104180000040780067406000af
:102f98000080fb00670060001214800081ff2f0092
:102fa8008100610001007000101488000080fa00a0
:102fb800000006000000fa00f1ff07000080fa0098
:102fc800000006000000fa00101480000000a100b4
:102fd8000010a1000020a100101488000080fa0051
:102fe800000006000000fa00f6ff07000080fa0063
:102ff800000006000200fa00000f78009e0078002a
:10300800411488000080fa00000006000200fa005f
:10301800000f78001e007800f6ff07000080fa0015
:10302800000006000400fa00000f7800110798005d
:103038009e007800411488009e009000311488009a
:103048000080fa00000006000400fa00000f780073
:10305800110798009e0090001e007800f1ff0700fd
:103068000080fa00000006000400fa00000f780053
:10307800110798009e007800411488009e00900077
:10308800311488000080fa00000006000400fa00ed
:10309800000f7800110798009e0090001e0078002d
:1030a800f1ff07000080fa00000006000400fa00a3
:1030b800000f7800110798009e00780041148800de
:1030c8009e009000311488000080fa00000006007d
:1030d8000400fa00000f7800110798009e00900085
:1030e8001e007800f1ff07000080fa0000000600cb
:1030f8000000fa00300480004900de0061406000f2
:103108000080fb0000f0a7000000ea000000ea00d1
:103118004f00de00004078000080fa000000060042
:103128000000fa00f2ff07000080fa000000060025
:103138000400fa00100798001e009000e10f5000ec
:103148000f003200e10f500003003900e20f500079
:10315800150032001e003700101480004400de0005
:10316800614060000080fb0000f0a7000000ea005a
:103178000000ea004f00de00004f7800140037001e
:10318800101480004500de00614060000080fb00f4
:1031980000f0a7000000ea000000ea004f00de008f
:1031a800004f78000a003700101480004600de0047
:1031b800614060000080fb0000f0a7000000ea000a
:1031c8000000ea004f00de00004f78000000000019
:1031d8001e4078000080fa00000006000200fa0095
:1031e800000f78001e007800d1ff07000080fa0069
:1031f800000006000200fa00000f78001e007800a8
:10320800e10f500007003200e10f500003003900c1
:10321800e20f500005003200060037008282a90044
:103228000400370082a2a9000200370082c2a90068
:10323800000000000080fa00000006000200fa000a
:10324800000f78001e007800eaff07000080fa00ef
:10325800000006000000fa0084c2a8000080fa00fe
:10326800000006000000fa00201480004600de007e
:10327800614060000080fb0000f0a7000000ea0049
:103288000000ea004f00de00004078000080fa00ed
:10329800000006000000fa00f2ff07000080fa00b4
:1032a800000006000000fa0084c2a9000080fa00ad
:1032b800000006000000fa00faff07000080fa008c
:1032c800000006000000fa0060002100c01388001a
:1032d8007a22ef0000712200e013880000502000dd
:1032e800f01388008022ef00c013800000407800af
:1032f800674060000080fb00204188000080fa00e1
:10330800000006000000fa00eeff07000080fa0047
:10331800000006000000fa002104800000042000dc
:10332800008060000000e0000100320084c0a900b5
:103338000080fa00000006000000fa00f5ff070010
:103348000080fa00000006000000fa00204180001a
:1033580000407800674060000080fb006700600064
:10336800c213800081ff2f008100610001007000fe
:10337800c01388000080fa00000006000000fa0070
:10338800f1ff07000080fa00000006000000fa00c4
:10339800c01380000000a1000010a1000020a100bf
:1033a800c01388000080fa00000006000000fa0040
:1033b800f6ff07000080fa00000006000200fa008d
:1033c800000f78009e007800f11388000080fa0052
:1033d800000006000200fa00000f78001e007800c6
:1033e800f6ff07000080fa00000006000400fa005b
:1033f800000f7800110798009e007800f1138800ec
:103408009e009000e11388000080fa00000006008a
:103418000400fa00000f7800110798009e00900041
:103428001e007800f1ff07000080fa000000060087
:103438000400fa00000f7800110798009e00780039
:10344800f11388009e009000e11388000080fa00c4
:10345800000006000400fa00000f78001107980029
:103468009e0090001e007800f1ff07000080fa001f
:10347800000006000400fa00000f78001107980009
:103488009e007800f11388009e009000e1138800e8
:103498000080fa00000006000400fa00000f78001f
:1034a800110798009e0090001e007800f1ff0700a9
:1034b8000080fa00000006000000fa0020048000e6
:1034c8004600de00614060000080fb0000f0a700bd
:1034d8000000ea000000ea004f00de00004078002b
:1034e8000080fa00000006000000fa00f2ff070062
:1034f8000080fa00000006000400fa001007980097
:103508001e009000e10f50000f003200e10f500044
:1035180003003900e20f5000150032001e0037008a
:10352800c01380004400de00614060000080fb00a2
:1035380000f0a7000000ea000000ea004f00de00eb
:10354800004f780014003700c01380004500de00eb
:10355800614060000080fb0000f0a7000000ea0066
:103568000000ea004f00de00004f78000a00370034
:10357800c01380004600de00614060000080fb0050
:1035880000f0a7000000ea000000ea004f00de009b
:10359800004f7800000000001e4078000080fa000c
:1035a800000006000200fa00000f78001e007800f4
:1035b800d1ff07000080fa00000006000200fa00b0
:1035c800000f78001e007800e10f5000070032005d
:1035d800e10f500003003900e20f500005003200ef
:1035e800060037007882a9000400370078a2a900f5
:1035f8000200370078c2a900000000000080fa002d
:10360800000006000200fa00000f78001e00780093
:10361800eaff07000080fa00000006000000fa0038
:103628007ac2a8000080fa00000006000000fa0034
:10363800d01380004600de00614060000080fb007f
:1036480000f0a7000000ea000000ea004f00de00da
:10365800004078000080fa00000006000000fa0030
:10366800f2ff07000080fa00000006000000fa00e0
:103678007ac2a9000080fa00000006000000fa00e3
:10368800faff07000080fa00000006000000fa00b8
:1036980060002100701388007022ef000071220082
:1036a80090138800602f2000a01388007622ef0076
:1036b8007013800000407800674060000080fb00c5
:1036c800304188000080fa00000006000000fa007f
:1036d800eeff07000080fa00000006000000fa0074
:1036e80020048000640060000000e0000100320057
:1036f8008440a9000080fa00000006000000fa00db
:10370800f6ff07000080fa00000006000000fa003b
:103718003041800000407800674060000080fb0076
:10372800670060007213800081ff2f008100610034
:1037380001007000701388000080fa000000060085
:103748000000fa00f1ff07000080fa000000060000
:103758000000fa00701380000000a1000010a10012
:103768000020a100701388000080fa000000060005
:103778000000fa00f6ff07000080fa0000000600cb
:103788000200fa00000f78009e007800a11388005c
:103798000080fa00000006000200fa00000f78001e
:1037a8001e007800f6ff07000080fa0000000600ff
:1037b8000400fa00000f7800110798009e007800b6
:1037c800a11388009e009000911388000080fa00e1
:1037d800000006000400fa00000f780011079800a6
:1037e8009e0090001e007800f1ff07000080fa009c
:1037f800000006000400fa00000f78001107980086
:103808009e007800a11388009e0090009113880004
:103818000080fa00000006000400fa00000f78009b
:10382800110798009e0090001e007800f1ff070025
:103838000080fa00000006000400fa00000f78007b
:10384800110798009e007800a11388009e00900040
:10385800911388000080fa00000006000400fa00b6
:10386800000f7800110798009e0090001e00780055
:10387800f1ff07000080fa00000006000000fa00cf
:10388800200480004200de00614060000080fb00f0
:1038980000f0a7000000ea000000ea004f00de0088
:1038a800004078000080fa00000006000000fa00de
:1038b800f2ff07000080fa00000006000400fa008a
:1038c800100798001e009000e10f50000f00320012
:1038d800e10f500003003900e20f500015003200dc
:1038e8001e003700701380004400de006140600055
:1038f8000080fb0000f0a7000000ea000000ea00da
:103908004f00de00004f780014003700701380006d
:103918004500de00614060000080fb0000f0a70069
:103928000000ea000000ea004f00de00004f7800c7
:103938000a003700701380004600de006140600016
:103948000080fb0000f0a7000000ea000000ea0089
:103958004f00de00004f7800000000001e40780095
:103968000080fa00000006000200fa00000f78004c
:103978001e007800d1ff07000080fa000000060052
:103988000200fa00000f78001e007800e10f5000d6
:1039980007003200e10f500003003900e20f500029
:1039a80005003200060037006e82a90004003700c7
:1039b8006ea2a900020037006ec2a9000000000034
:1039c8000080fa00000006000200fa00000f7800ec
:1039d8001e007800eaff07000080fa0000000600d9
:1039e8000000fa0070c2a8000080fa00000006007b
:1039f8000000fa00801380004600de00614060008d
:103a08000080fb0000f0a7000000ea000000ea00c8
:103a18004f00de00004078000080fa000000060039
:103a28000000fa00f2ff07000080fa00000006001c
:103a38000000fa0070c2a9000080fa000000060029
:103a48000000fa00faff07000080fa0000000600f4
:103a58000000fa0000012800801288004c22ef00c4
:103a680000712200701288008460a9009460a80088
:103a7800008720008040eb00014878000080fa00b1
:103a8800000006000000fa00f1ff07000080fa00bd
:103a9800000006003600f800809fbe00829fbe002e
:103aa800849fbe00869fbe000000fa00d0408000c0
:103ab8000000e800d0408800d04080000000e0000e
:103ac800020032003f0007001a28ef00108720008c
:103ad800104078008040e8001087200001487800f6
:103ae8000087200011c0b300014878008460a90055
:103af8000080fa004f03be004f02be004f01be0017
:103b08004f00be003600f900004006000200fa002f
:103b1800000f78009e00780071128800008720004e
:103b28008040eb00014878000080fa0000000600a1
:103b38000200fa00000f78001e007800f3ff07006b
:103b48000080fa00000006000000fa0070128000f1
:103b58000080fa00000006000000fa00faff0700e3
:103b68000080fa00000006000200fa00000f78004a
:103b78009e00780061128800008720008040eb00da
:103b8800014878000080fa00000006000200fa00f0
:103b9800000f78001e007800f3ff07000080fa008d
:103ba800000006000000fa00601280000080fa00a1
:103bb800000006000000fa00faff07000080fa0083
:103bc800000006000000fa00604080000000e800e5
:103bd800604088000080fa00000006000000fa003b
:103be800008720008040eb00014878009460a8001e
:103bf80051e2a8000080fa00000006000000fa0068
:103c0800f6ff07000080fa00000006000000fa0036
:103c180051e2a9009460a9000080fa0000000600a3
:103c28000000fa00f9ff07000080fa000000060013
:103c38000200fa0000872000104f78001e4078002c
:103c48000004e00003003200008720008040eb0001
:103c5800014878001e4078000080fa000000060045
:103c68000000fa00f2ff07000080fa0000000600da
:103c78000000fa0010872000104078000080fa0049
:103c8800000006000000fa00f9ff07000080fa00b3
:103c9800000006000000fa00108720008040eb00ba
:103ca800014878000080fa00000006000000fa00d1
:103cb800f8ff07000080fa00000006000000fa0084
:103cc80000002800e01288005222ef0000fa2000cd
:103cd800c012880084e0a90094e0a8002087200092
:103ce8008040eb00014878000080fa0000000600e0
:103cf8000000fa00f1ff07000080fa00000006004b
:103d08003600f800809fbe00829fbe00849fbe00e0
:103d1800869fbe000000fa003e00070030872000a2
:103d2800104078008040e800308720000148780083
:103d38002087200011c0b3000148780084e0a90062
:103d48000080fa004f03be004f02be004f01be00c4
:103d58004f00be003600f900004006000200fa00dd
:103d6800000f78009e007800c1128800208720008c
:103d78008040eb00014878000080fa00000006004f
:103d88000200fa00000f78001e007800f3ff070019
:103d98000080fa00000006000000fa00c01280004f
:103da8000080fa00000006000000fa00faff070091
:103db8000080fa00000006000200fa00000f7800f8
:103dc8009e00780091128800208720008040eb0038
:103dd800014878000080fa00000006000200fa009e
:103de800000f78001e007800f3ff07000080fa003b
:103df800000006000000fa00901280000080fa001f
:103e0800000006000000fa00faff07000080fa0030
:103e1800000006000000fa00704080000000e80082
:103e2800704088000080fa00000006000000fa00d8
:103e3800208720008040eb000148780094e0a8002b
:103e48005de2a8000080fa00000006000000fa0009
:103e5800f6ff07000080fa00000006000000fa00e4
:103e68005de2a90094e0a9000080fa0000000600c5
:103e78000000fa00f9ff07000080fa0000000600c1
:103e88000200fa0020872000104f78001e407800ba
:103e98000004e00003003200208720008040eb008f
:103ea800014878001e4078000080fa0000000600f3
:103eb8000000fa00f2ff07000080fa000000060088
:103ec8000000fa0030872000104078000080fa00d7
:103ed800000006000000fa00f9ff07000080fa0061
:103ee800000006000000fa00308720008040eb0048
:103ef800014878000080fa00000006000000fa007f
:0c3f0800f8ff07000080fa00000006002f
:020000040000fa
:103f14007008000002000000800000001a08000081
:103f240002000000800000001c08000002000000e5
:103f3400800000001e080000020000008000000055
:103f44002008000002000000800000002208000099
:103f540002000000800000002408000002000000ad
:103f6400800000002608000002000000800000001d
:103f74002a0800004000000082000000ffffff004c
:103f8400ffffff00ffffff00ffffff00ffffff0039
:103f9400ffffff00ffffff00ffffff00ffffff0029
:103fa400ffffff00ffffff00ffffff00ffffff0019
:103fb400ffffff00ffffff00ffffff00ffffff0009
:103fc400ffffff00ffffff00ffffff00ffffff00f9
:103fd400ff000000000800000c000000800000004a
:103fe400160800000400000082000000aa0101007d
:103ff40000000000720800000200000080000000c1
:104004006a08000006000000800000000c080000a0
:104014000a000000800000002808000002000000e0
:0c4024008200000001000000000000000d
:020000040000fa
:104030000000fa00a0002000200c880050002000a2
:10404000000c8800000e2000700c8800f01020008a
:10405000500c88008821ef0030002000900c880070
:1040600001088000f00b2000008160006004200047
:1040700071052000031020008049780081497800f4
:1040800082497800f11e8000f00f2c0080806000d3
:104090000020210001007000f01e8800011f800038
:1040a00000fc2f00008060001001b300001f88009a
:1040b000011f8000f00f2c008080600000002100b4
:1040c00001007000001f8800111f8000f00f2c00fd
:1040d0008080600000f0200001007000101f880048
:1040e000211f800000fc2f0000806000e000b30072
:1040f000201f8800211f8000f00f2c0080806000ae
:1041000000d0200001007000201f880001088000fe
:1041100000042000010170006004200071052000ef
:104120000310200080497800814978008249780096
:104130000080fa00000006000000fa000d000700f1
:10414000bbff07001200070052fd07005ffc0700dd
:104150006cfb070079fa070086f9070093f807005f
:104160003dfe0700d7fe070009f707000080fa00b0
:10417000000006000000fa0000002300100888007c
:104180000621ef000021a9000080fa0000000600cf
:104190000000fa002005800000c0a00000d0a100af
:1041a00000e0a10020058800e00580000040a0009c
:1041b0000050a1000060a100e005880030058000eb
:1041c00000c0a00000d0a10000e0a10030058800e0
:0841d0000080fa000000060067
:020000040000fa
:020000040001f9
:0457f000ffff0000b7
:020000040000fa
:020000040001f9
:0457f400fffe0000b4
:020000040000fa
:020000040001f9
:0457f8009fb8000056
:020000040000fa
:020000040001f9
:0457fc003f3f00002b
:00000001FF
