:020000040000fa
:080000000002040000000000f2
:020000040000fa
:10000800d2020000d2020000d2020000d202000098
:10001800d2020000d2020000d2020000d202000088
:10002800d2020000d2020000d2020000dc10000060
:10003800d2020000d2020000d2020000d202000068
:10004800d2020000d2020000d2020000d202000058
:10005800d2020000d2020000d2020000d202000048
:10006800d2020000d2020000d2020000d202000038
:10007800d2020000d2020000d2020000d202000028
:10008800d2020000d2020000d2020000d202000018
:10009800d2020000d2020000d2020000d202000008
:1000a800d2020000d2020000d2020000d2020000f8
:1000b800d2020000d2020000d2020000d2020000e8
:1000c800d2020000d2020000d2020000d2020000d8
:1000d800d2020000d2020000d2020000d2020000c8
:1000e800d2020000d2020000d2020000d2020000b8
:1000f800d2020000d2020000d2020000d2020000a8
:10010800d2020000d2020000d2020000d202000097
:10011800d2020000d2020000d2020000d202000087
:10012800d2020000d2020000d2020000d202000077
:10013800d2020000d2020000d2020000d202000067
:10014800d2020000d2020000d2020000d202000057
:10015800d2020000d2020000d2020000d202000047
:10016800d2020000d2020000d2020000d202000037
:10017800d2020000d2020000d2020000d202000027
:10018800d2020000d2020000d2020000d202000017
:10019800d2020000d2020000d2020000d202000007
:1001a800d2020000d2020000d2020000d2020000f7
:1001b800d2020000d2020000d2020000d2020000e7
:1001c800d2020000d2020000d2020000d2020000d7
:1001d800d2020000d2020000d2020000d2020000c7
:1001e800d2020000d2020000d2020000d2020000b7
:0801f800d2020000d202000057
:020000040000fa
:10020800d2020000d2020000d2020000d202000096
:10021800d2020000d2020000d2020000d202000086
:10022800d2020000d2020000d2020000dc1000005e
:10023800d2020000d2020000d2020000d202000066
:10024800d2020000d2020000d2020000d202000056
:10025800d2020000d2020000d2020000d202000046
:10026800d2020000d2020000d2020000d202000036
:10027800d2020000d2020000d2020000d202000026
:10028800d2020000d2020000d2020000d202000016
:10029800d2020000d2020000d2020000d202000006
:1002a800d2020000d2020000d2020000d2020000f6
:1002b800d2020000d2020000d2020000d2020000e6
:1002c800d2020000d2020000d2020000d2020000d6
:1002d800d2020000d2020000d2020000d2020000c6
:1002e800d2020000d2020000d2020000d2020000b6
:1002f800d2020000d2020000d2020000d2020000a6
:10030800d2020000d2020000d2020000d202000095
:10031800d2020000d2020000d2020000d202000085
:10032800d2020000d2020000d2020000d202000075
:10033800d2020000d2020000d2020000d202000065
:10034800d2020000d2020000d2020000d202000055
:10035800d2020000d2020000d2020000d202000045
:10036800d2020000d2020000d2020000d202000035
:10037800d2020000d2020000d2020000d202000025
:10038800d2020000d2020000d2020000d202000015
:10039800d2020000d2020000d2020000d202000005
:1003a800d2020000d2020000d2020000d2020000f5
:1003b800d2020000d2020000d2020000d2020000e5
:1003c800d2020000d2020000d2020000d2020000d5
:1003d800d2020000d2020000d2020000d2020000c5
:1003e800d2020000d2020000d2020000d2020000b5
:0803f800d2020000d202000055
:020000040000fa
:100400008f8120000e7f22000e0188000000000076
:10041000000020000000e000020032000001200087
:10042000200288000c000700402721000100200066
:100430000f000700000020000000e0000200320072
:100440000000020000000000d602020000000000d0
:100450000040da000000fe00200020000000e00064
:100460000200320010002000900188000000060009
:10047000a1028800800078000000eb001a0037001d
:10048000e280400054a0b4009101ba00e280400034
:1004900054a0b4009102ba00e280400054a0b4001d
:1004a0000002eb00472bde00f507b200a601880032
:1004b000602ce10008003a000049eb000201e8006e
:1004c000020039003420ec0002f0a0008301e900b2
:1004d000f9ff3e00040037006128e100010032000e
:1004e0000082eb00040007001101ba000200e000e6
:1004f000e3ff3a000000060004d0a300e20f490029
:100500001c003900810278003549ba000201e80078
:10051000020039003420ec0002f0a0008301e90061
:100520000f0032002549ba000201e800020039003c
:100530003420ec0002f0a0008301e9000800320042
:100540000400e0000600320015c9ba000201e8000c
:10055000020039003420ec0002f0a0008301e90021
:100560008180e80054a0b4000300e000e2ff3a00fc
:10057000000006009102ba00055978008301e900e5
:10058000f7ff3200c82ade00055978008301e90030
:10059000f3ff32000400e000f1ff320011d9ba008d
:0c05a000eeff37000040da000000fe0013
:020000040000fa
:1005ac000000fa00e90707002000200045000700c2
:1005bc008261a90010002000420007008221a900de
:1005cc00100020003f0007008ca1a90010002000a3
:1005dc003c0007008ce1a900100020003900070046
:1005ec008cc1a90010002000360007000100370064
:1005fc0000000000100c8000610060000000e000b2
:10060c000c003200104080000000e8001040880010
:10061c0010408000e80f500002003a00100020004b
:10062c0010408800a0002000260007001040800029
:10063c002d000700100c8000640060000000e0003a
:10064c00ebff32008cc1a800500020001d000700f9
:10065c008cc1a900300020001a0007008cc1a80032
:10066c0020002000170007008cc1a90010002000fa
:10067c00140007008cc1a800104080005d0007002a
:10068c008cc1a800500020000e0007008cc1a900ee
:10069c00300020000b0007008cc1a80020002000b7
:1006ac00080007008cc1a9001000200005000700fd
:1006bc008cc1a80010002000020007008cc1a9000a
:1006cc00ccff37000200fa00000f78000028ef0082
:1006dc0000000000004080009e0f5000fdff340021
:1006ec000080fa00000006000200fa00000f7800fb
:1006fc001e007800e40f500020003200e40f500080
:10070c0007003c00e20f500012003200e20f5000d4
:10071c0015003c00e10f5000080032003300370098
:10072c00e60f500025003200e60f50001b0035008c
:10073c00e70f5000290032002c0037008ce1a90093
:10074c008221a80010002000deff07008261a900b2
:10075c00260037008221a90010002000d9ff0700d5
:10076c008261a800210037008221a800100020001f
:10077c00d4ff07008261a8001c0037008221a90069
:10078c0010002000cfff07008261a900100020009c
:10079c00ccff07008ce1a800140037008221a800d0
:1007ac0010002000c7ff07008261a9001000200084
:1007bc00c4ff07008ce1a8000c0037008221a900bf
:1007cc0010002000bfff07008261a800100020006d
:1007dc00bcff07008ce1a800040037008221a800b0
:1007ec0010002000b7ff0700000000000080fa0096
:1007fc00000006000200fa00000f78001e007800ce
:10080c00e40f50001e003200e40f500007003c00c3
:10081c00e20f500012003200e20f500014003c00b6
:10082c00e10f50000a00320027003700e60f50009d
:10083c001b003200e60f500015003500e70f50008a
:10084c001b003200e80f50001c0032001e00370065
:10085c0040000700100020009aff07001a00370024
:10086c004b0007001000200096ff07001600370011
:10087c00560007001000200092ff070012003700fe
:10088c0061000700100020008eff07000e003700eb
:10089c006c000700100020008aff07000a003700d8
:1008ac00770007001000200086ff070006003700c5
:1008bc00100007001000200082ff07000400070052
:1008cc00100020007fff07000080fa0000000600e7
:1008dc000000fa001f0007002d0007003b00070076
:1008ec004900070057000700650007000080fa0068
:1008fc00000006000000fa0000272000a01388006a
:10090c0005003700a013800070004000a013880081
:10091c00100020006bff0700a11380005046200040
:10092c00808f5000f7ff360005003700a0138000c1
:10093c0070005000a01388001000200061ff070019
:10094c00a1138000f0262000808f5000f7ff3e009e
:10095c00e9ff37000000fa00700e2000a013880099
:10096c0005003700a013800070004000a013880021
:10097c001000200053ff0700a1138000005020003e
:10098c00808f5000f7ff36000080fa000000060050
:10099c000000fa00700e2000f013880005003700ec
:1009ac00f013800070004000f0138800100020004d
:1009bc0044ff0700f113800000502000808f50008e
:1009cc00f7ff36000080fa00000006000000fa0075
:1009dc00700e200040148800050037004014800081
:1009ec0070004000401488001000200035ff070004
:1009fc004114800000502000808f5000f7ff36001b
:100a0c000080fa00000006000000fa00700e2000c2
:100a1c009014880005003700901480002003b0006b
:100a2c00901488001000200026ff0700911480000d
:100a3c0000502000808f5000f7ff36000080fa0035
:100a4c00000006000000fa0000112000e0148800ed
:100a5c0005003700e014800070004000e0148800ae
:100a6c001000200017ff0700e11480005046200002
:100a7c00808f5000f7ff36000080fa00000006005f
:100a8c000000fa0000152000e01488000500370073
:100a9c0030158000700040003015880010002000d8
:100aac0008ff07003115800050462000808f500051
:100abc00f7ff36000080fa00000006000000fa0084
:100acc006000210000158800a222ef0000712200b6
:100adc00201588000025200030158800a822ef0082
:100aec000015800000407800674060000080fb002b
:100afc00504088000080fa00000006000000fa0058
:100b0c00eeff07000080fa00000006000000fa006b
:100b1c004104800000402000008060000000e000e4
:100b2c00010032008940a9000080fa000000060094
:100b3c000000fa00f5ff07000080fa000000060034
:100b4c000000fa00504080000040780067406000d0
:100b5c000080fb00670060000215800081ff2f0001
:100b6c008100610001007000001588000080fa000f
:100b7c00000006000000fa00f1ff07000080fa00f8
:100b8c00000006000000fa00001580000000a10023
:100b9c000010a1000020a100001588000080fa00c0
:100bac00000006000000fa00f6ff07000080fa00c3
:100bbc00000006000200fa00000f78009e0078008a
:100bcc00311588000080fa00000006000200fa00cf
:100bdc00000f78001e007800f6ff07000080fa0076
:100bec00000006000400fa00000f780011079800be
:100bfc009e007800311588009e0090002115880019
:100c0c000080fa00000006000400fa00000f7800d3
:100c1c00110798009e0090001e007800f1ff07005d
:100c2c000080fa00000006000400fa00000f7800b3
:100c3c00110798009e007800311588009e009000e6
:100c4c00211588000080fa00000006000400fa005c
:100c5c00000f7800110798009e0090001e0078008d
:100c6c00f1ff07000080fa00000006000400fa0003
:100c7c00000f7800110798009e007800311588004d
:100c8c009e009000211588000080fa0000000600ec
:100c9c000400fa00000f7800110798009e009000e5
:100cac001e007800f1ff07000080fa00000006002b
:100cbc000000fa00400480004a00de006140600041
:100ccc000080fb0000f0a7000000ea000000ea0032
:100cdc004f00de00004078000080fa0000000600a3
:100cec000000fa00f2ff07000080fa000000060086
:100cfc000400fa00100798001e009000e10f50004d
:100d0c000f003200e10f500003003900e20f5000d9
:100d1c00150032001e003700001580004400de0074
:100d2c00614060000080fb0000f0a7000000ea00ba
:100d3c000000ea004f00de00004f7800140037007e
:100d4c00001580004500de00614060000080fb0063
:100d5c0000f0a7000000ea000000ea004f00de00ef
:100d6c00004f78000a003700001580004600de00b6
:100d7c00614060000080fb0000f0a7000000ea006a
:100d8c000000ea004f00de00004f78000000000079
:100d9c001e4078000080fa00000006000200fa00f5
:100dac00000f78001e007800d1ff07000080fa00c9
:100dbc00000006000200fa00000f78001e00780008
:100dcc00e10f500007003200e10f50000300390022
:100ddc00e20f50000500320006003700a082a90087
:100dec0004003700a0a2a90002003700a0c2a9008d
:100dfc00000000000080fa00000006000200fa006b
:100e0c00000f78001e007800eaff07000080fa004f
:100e1c00000006000000fa00a2c2a8000080fa0040
:100e2c00000006000000fa00101580004600de00ed
:100e3c00614060000080fb0000f0a7000000ea00a9
:100e4c000000ea004f00de00004078000080fa004d
:100e5c00000006000000fa00f2ff07000080fa0014
:100e6c00000006000000fa00a2c2a9000080fa00ef
:100e7c00000006000000fa00faff07000080fa00ec
:100e8c00000006000000fa0060002100b014880089
:100e9c009822ef0000712200d0148800f01f20006f
:100eac00e01488009e22ef00b0148000004078000f
:100ebc00674060000080fb00604088000080fa0002
:100ecc00000006000000fa00eeff07000080fa00a8
:100edc00000006000000fa00410480000020200001
:100eec00008060000000e000010032008920a900b1
:100efc000080fa00000006000000fa00f5ff070071
:100f0c000080fa00000006000000fa00604080003b
:100f1c0000407800674060000080fb0067006000c4
:100f2c00b214800081ff2f0081006100010070006d
:100f3c00b01488000080fa00000006000000fa00df
:100f4c00f1ff07000080fa00000006000000fa0024
:100f5c00b01480000000a1000010a1000020a1002e
:100f6c00b01488000080fa00000006000000fa00af
:100f7c00f6ff07000080fa00000006000200fa00ed
:100f8c00000f78009e007800e11488000080fa00c1
:100f9c00000006000200fa00000f78001e00780026
:100fac00f6ff07000080fa00000006000400fa00bb
:100fbc00000f7800110798009e007800e11488005b
:100fcc009e009000d11488000080fa0000000600fa
:100fdc000400fa00000f7800110798009e009000a2
:100fec001e007800f1ff07000080fa0000000600e8
:100ffc000400fa00000f7800110798009e0078009a
:10100c00e11488009e009000d11488000080fa0042
:10101c00000006000400fa00000f78001107980089
:10102c009e0090001e007800f1ff07000080fa007f
:10103c00000006000400fa00000f78001107980069
:10104c009e007800e11488009e009000d114880066
:10105c000080fa00000006000400fa00000f78007f
:10106c00110798009e0090001e007800f1ff070009
:10107c000080fa00000006000000fa004004800026
:10108c004900de00614060000080fb0000f0a7001a
:10109c000000ea000000ea004f00de00004078008b
:1010ac000080fa00000006000000fa00f2ff0700c2
:1010bc000080fa00000006000400fa0010079800f7
:1010cc001e009000e10f50000f003200e10f5000a5
:1010dc0003003900e20f5000150032001e003700eb
:1010ec00b01480004400de00614060000080fb0012
:1010fc0000f0a7000000ea000000ea004f00de004c
:10110c00004f780014003700b01480004500de005a
:10111c00614060000080fb0000f0a7000000ea00c6
:10112c000000ea004f00de00004f78000a00370094
:10113c00b01480004600de00614060000080fb00bf
:10114c0000f0a7000000ea000000ea004f00de00fb
:10115c00004f7800000000001e4078000080fa006c
:10116c00000006000200fa00000f78001e00780054
:10117c00d1ff07000080fa00000006000200fa0010
:10118c00000f78001e007800e10f500007003200bd
:10119c00e10f500003003900e20f5000050032004f
:1011ac00060037009682a9000400370096a2a90019
:1011bc000200370096c2a900000000000080fa006f
:1011cc00000006000200fa00000f78001e007800f4
:1011dc00eaff07000080fa00000006000000fa0099
:1011ec0098c2a8000080fa00000006000000fa0077
:1011fc00c01480004600de00614060000080fb00ef
:10120c0000f0a7000000ea000000ea004f00de003a
:10121c00004078000080fa00000006000000fa0090
:10122c00f2ff07000080fa00000006000000fa0040
:10123c0098c2a9000080fa00000006000000fa0025
:10124c00faff07000080fa00000006000000fa0018
:10125c0060002100601488008e22ef0000712200d3
:10126c0080148800e0102000901488009422ef0075
:10127c006014800000407800674060000080fb0034
:10128c00704088000080fa00000006000000fa00a0
:10129c00eeff07000080fa00000006000000fa00d4
:1012ac003104800000402000008060000000e0005d
:1012bc00010032008740a9000080fa0000000600ff
:1012cc000000fa00f5ff07000080fa00000006009d
:1012dc000000fa0070408000004078006740600019
:1012ec000080fb00670060006214800081ff2f000b
:1012fc008100610001007000601488000080fa0019
:10130c00000006000000fa00f1ff07000080fa0060
:10131c00000006000000fa00601480000000a1002c
:10132c000010a1000020a100601488000080fa00c9
:10133c00000006000000fa00f6ff07000080fa002b
:10134c00000006000200fa00000f78009e007800f2
:10135c00911488000080fa00000006000200fa00d8
:10136c00000f78001e007800f6ff07000080fa00de
:10137c00000006000400fa00000f78001107980026
:10138c009e007800911488009e00900081148800c3
:10139c000080fa00000006000400fa00000f78003c
:1013ac00110798009e0090001e007800f1ff0700c6
:1013bc000080fa00000006000400fa00000f78001c
:1013cc00110798009e007800911488009e009000f0
:1013dc00811488000080fa00000006000400fa0066
:1013ec00000f7800110798009e0090001e007800f6
:1013fc00f1ff07000080fa00000006000400fa006c
:10140c00000f7800110798009e0078009114880056
:10141c009e009000811488000080fa0000000600f5
:10142c000400fa00000f7800110798009e0090004d
:10143c001e007800f1ff07000080fa000000060093
:10144c000000fa00300480004a00de0061406000b9
:10145c000080fb0000f0a7000000ea000000ea009a
:10146c004f00de00004078000080fa00000006000b
:10147c000000fa00f2ff07000080fa0000000600ee
:10148c000400fa00100798001e009000e10f5000b5
:10149c000f003200e10f500003003900e20f500042
:1014ac00150032001e003700601480004400de007e
:1014bc00614060000080fb0000f0a7000000ea0023
:1014cc000000ea004f00de00004f780014003700e7
:1014dc00601480004500de00614060000080fb006d
:1014ec0000f0a7000000ea000000ea004f00de0058
:1014fc00004f78000a003700601480004600de00c0
:10150c00614060000080fb0000f0a7000000ea00d2
:10151c000000ea004f00de00004f780000000000e1
:10152c001e4078000080fa00000006000200fa005d
:10153c00000f78001e007800d1ff07000080fa0031
:10154c00000006000200fa00000f78001e00780070
:10155c00e10f500007003200e10f5000030039008a
:10156c00e20f500005003200060037008c82a90003
:10157c00040037008ca2a900020037008cc2a9001d
:10158c00000000000080fa00000006000200fa00d3
:10159c00000f78001e007800eaff07000080fa00b8
:1015ac00000006000000fa008ec2a8000080fa00bd
:1015bc00000006000000fa00701480004600de00f7
:1015cc00614060000080fb0000f0a7000000ea0012
:1015dc000000ea004f00de00004078000080fa00b6
:1015ec00000006000000fa00f2ff07000080fa007d
:1015fc00000006000000fa008ec2a9000080fa006c
:10160c00000006000000fa00faff07000080fa0054
:10161c00000006000000fa00600021001014880091
:10162c008422ef000071220030148800e0102000aa
:10163c00401488008a22ef001014800000407800cb
:10164c00674060000080fb00804088000080fa004a
:10165c00000006000000fa00eeff07000080fa0010
:10166c00000006000000fa00310480000020200079
:10167c00008060000000e000010032008720a9001b
:10168c000080fa00000006000000fa00f5ff0700d9
:10169c000080fa00000006000000fa008040800084
:1016ac0000407800674060000080fb00670060002d
:1016bc001214800081ff2f00810061000100700076
:1016cc00101488000080fa00000006000000fa00e8
:1016dc00f1ff07000080fa00000006000000fa008d
:1016ec00101480000000a1000010a1000020a10037
:1016fc00101488000080fa00000006000000fa00b8
:10170c00f6ff07000080fa00000006000200fa0055
:10171c00000f78009e007800411488000080fa00c9
:10172c00000006000200fa00000f78001e0078008e
:10173c00f6ff07000080fa00000006000400fa0023
:10174c00000f7800110798009e0078004114880063
:10175c009e009000311488000080fa000000060002
:10176c000400fa00000f7800110798009e0090000a
:10177c001e007800f1ff07000080fa000000060050
:10178c000400fa00000f7800110798009e00780002
:10179c00411488009e009000311488000080fa00eb
:1017ac00000006000400fa00000f780011079800f2
:1017bc009e0090001e007800f1ff07000080fa00e8
:1017cc00000006000400fa00000f780011079800d2
:1017dc009e007800411488009e009000311488000f
:1017ec000080fa00000006000400fa00000f7800e8
:1017fc00110798009e0090001e007800f1ff070072
:10180c000080fa00000006000000fa00300480009e
:10181c004900de00614060000080fb0000f0a70082
:10182c000000ea000000ea004f00de0000407800f3
:10183c000080fa00000006000000fa00f2ff07002a
:10184c000080fa00000006000400fa00100798005f
:10185c001e009000e10f50000f003200e10f50000d
:10186c0003003900e20f5000150032001e00370053
:10187c00101480004400de00614060000080fb001a
:10188c0000f0a7000000ea000000ea004f00de00b4
:10189c00004f780014003700101480004500de0063
:1018ac00614060000080fb0000f0a7000000ea002f
:1018bc000000ea004f00de00004f78000a003700fd
:1018cc00101480004600de00614060000080fb00c8
:1018dc0000f0a7000000ea000000ea004f00de0064
:1018ec00004f7800000000001e4078000080fa00d5
:1018fc00000006000200fa00000f78001e007800bd
:10190c00d1ff07000080fa00000006000200fa0078
:10191c00000f78001e007800e10f50000700320025
:10192c00e10f500003003900e20f500005003200b7
:10193c00060037008282a9000400370082a2a900a9
:10194c000200370082c2a900000000000080fa00eb
:10195c00000006000200fa00000f78001e0078005c
:10196c00eaff07000080fa00000006000000fa0001
:10197c0084c2a8000080fa00000006000000fa00f3
:10198c00201480004600de00614060000080fb00f7
:10199c0000f0a7000000ea000000ea004f00de00a3
:1019ac00004078000080fa00000006000000fa00f9
:1019bc00f2ff07000080fa00000006000000fa00a9
:1019cc0084c2a9000080fa00000006000000fa00a2
:1019dc00faff07000080fa00000006000000fa0081
:1019ec0060002100c01388007a22ef0000712200f1
:1019fc00e0138800e0102000f01388008022ef0034
:101a0c00c013800000407800674060000080fb003d
:101a1c00904088000080fa00000006000000fa00e8
:101a2c00eeff07000080fa00000006000000fa003c
:101a3c002104800000042000008060000000e00011
:101a4c000100320084c0a9000080fa0000000600ea
:101a5c000000fa00f5ff07000080fa000000060005
:101a6c000000fa0090408000004078006740600061
:101a7c000080fb0067006000c213800081ff2f0014
:101a8c008100610001007000c01388000080fa0022
:101a9c00000006000000fa00f1ff07000080fa00c9
:101aac00000006000000fa00c01380000000a10036
:101abc000010a1000020a100c01388000080fa00d3
:101acc00000006000000fa00f6ff07000080fa0094
:101adc00000006000200fa00000f78009e0078005b
:101aec00f11388000080fa00000006000200fa00e2
:101afc00000f78001e007800f6ff07000080fa0047
:101b0c00000006000400fa00000f7800110798008e
:101b1c009e007800f11388009e009000e11388006d
:101b2c000080fa00000006000400fa00000f7800a4
:101b3c00110798009e0090001e007800f1ff07002e
:101b4c000080fa00000006000400fa00000f780084
:101b5c00110798009e007800f11388009e009000f9
:101b6c00e11388000080fa00000006000400fa006f
:101b7c00000f7800110798009e0090001e0078005e
:101b8c00f1ff07000080fa00000006000400fa00d4
:101b9c00000f7800110798009e007800f113880060
:101bac009e009000e11388000080fa0000000600ff
:101bbc000400fa00000f7800110798009e009000b6
:101bcc001e007800f1ff07000080fa0000000600fc
:101bdc000000fa00200480004600de006140600036
:101bec000080fb0000f0a7000000ea000000ea0003
:101bfc004f00de00004078000080fa000000060074
:101c0c000000fa00f2ff07000080fa000000060056
:101c1c000400fa00100798001e009000e10f50001d
:101c2c000f003200e10f500003003900e20f5000aa
:101c3c00150032001e003700c01380004400de0087
:101c4c00614060000080fb0000f0a7000000ea008b
:101c5c000000ea004f00de00004f7800140037004f
:101c6c00c01380004500de00614060000080fb0076
:101c7c0000f0a7000000ea000000ea004f00de00c0
:101c8c00004f78000a003700c01380004600de00c9
:101c9c00614060000080fb0000f0a7000000ea003b
:101cac000000ea004f00de00004f7800000000004a
:101cbc001e4078000080fa00000006000200fa00c6
:101ccc00000f78001e007800d1ff07000080fa009a
:101cdc00000006000200fa00000f78001e007800d9
:101cec00e10f500007003200e10f500003003900f3
:101cfc00e20f500005003200060037007882a90080
:101d0c000400370078a2a9000200370078c2a900ad
:101d1c00000000000080fa00000006000200fa003b
:101d2c00000f78001e007800eaff07000080fa0020
:101d3c00000006000000fa007ac2a8000080fa0039
:101d4c00000006000000fa00d01380004600de0000
:101d5c00614060000080fb0000f0a7000000ea007a
:101d6c000000ea004f00de00004078000080fa001e
:101d7c00000006000000fa00f2ff07000080fa00e5
:101d8c00000006000000fa007ac2a9000080fa00e8
:101d9c00000006000000fa00faff07000080fa00bd
:101dac00000006000000fa0060002100701388009b
:101dbc007022ef0000712200901388000020200098
:101dcc00a01388007622ef0070138000004078008a
:101ddc00674060000080fb00a04088000080fa0093
:101dec00000006000000fa00eeff07000080fa0079
:101dfc00000006000000fa0020048000640060006f
:101e0c000000e000010032008440a9000080fa00cc
:101e1c00000006000000fa00f6ff07000080fa0040
:101e2c00000006000000fa00a0408000004078008e
:101e3c00674060000080fb00670060007213800048
:101e4c0081ff2f0081006100010070007013880079
:101e5c000080fa00000006000000fa00f1ff070005
:101e6c000080fa00000006000000fa0070138000e9
:101e7c000000a1000010a1000020a1007013880038
:101e8c000080fa00000006000000fa00f6ff0700d0
:101e9c000080fa00000006000200fa00000f780033
:101eac009e007800a11388000080fa000000060054
:101ebc000200fa00000f78001e007800f6ff070001
:101ecc000080fa00000006000400fa00000f780001
:101edc00110798009e007800a11388009e009000c6
:101eec00911388000080fa00000006000400fa003c
:101efc00000f7800110798009e0090001e007800db
:101f0c00f1ff07000080fa00000006000400fa0050
:101f1c00000f7800110798009e007800a11388002c
:101f2c009e009000911388000080fa0000000600cb
:101f3c000400fa00000f7800110798009e00900032
:101f4c001e007800f1ff07000080fa000000060078
:101f5c000400fa00000f7800110798009e0078002a
:101f6c00a11388009e009000911388000080fa0055
:101f7c00000006000400fa00000f7800110798001a
:101f8c009e0090001e007800f1ff07000080fa0010
:101f9c00000006000000fa00200480004200de0071
:101fac00614060000080fb0000f0a7000000ea0028
:101fbc000000ea004f00de00004078000080fa00cc
:101fcc00000006000000fa00f2ff07000080fa0093
:101fdc00000006000400fa00100798001e00900094
:101fec00e10f50000f003200e10f500003003900e8
:101ffc00e20f5000150032001e00370070138000f5
:10200c004400de00614060000080fb0000f0a7008f
:10201c000000ea000000ea004f00de00004f7800ec
:10202c0014003700701380004500de006140600032
:10203c000080fb0000f0a7000000ea000000ea00ae
:10204c004f00de00004f78000a003700701380004c
:10205c004600de00614060000080fb0000f0a7003d
:10206c000000ea000000ea004f00de00004f78009c
:10207c00000000001e4078000080fa0000000600fe
:10208c000200fa00000f78001e007800d1ff070054
:10209c000080fa00000006000200fa00000f780031
:1020ac001e007800e10f500007003200e10f5000d5
:1020bc0003003900e20f5000050032000600370023
:1020cc006e82a900040037006ea2a900020037003e
:1020dc006ec2a900000000000080fa00000006009b
:1020ec000200fa00000f78001e007800eaff0700db
:1020fc000080fa00000006000000fa0070c2a80080
:10210c000080fa00000006000000fa008013800036
:10211c004600de00614060000080fb0000f0a7007c
:10212c000000ea000000ea004f00de0000407800ea
:10213c000080fa00000006000000fa00f2ff070021
:10214c000080fa00000006000000fa0070c2a9002e
:10215c000080fa00000006000000fa00faff0700f9
:10216c000080fa00000006000000fa0000012800c0
:10217c00801288004c22ef0000712200701288003f
:10218c008460a9009460a800608120008040eb006e
:10219c00014878000080fa00000006000000fa00f8
:1021ac00f1ff07000080fa00000006003600f8007e
:1021bc00809fbe00829fbe00849fbe00869fbe0093
:1021cc000000fa00404080000000e8004040880019
:1021dc0040408000e10f5000020036003f00070035
:1021ec000828ef0070812000104078008040e80043
:1021fc0070812000014878006081200011c0b3007c
:10220c00014878008460a9000080fa004f03be00ea
:10221c004f02be004f01be004f00be003600f90059
:10222c00004006000200fa00000f78009e007800c3
:10223c0071128800608120008040eb00014878001a
:10224c000080fa00000006000200fa00000f78007f
:10225c001e007800f3ff07000080fa000000060063
:10226c000000fa00701280000080fa0000000600e6
:10227c000000fa00faff07000080fa0000000600d8
:10228c000200fa00000f78009e00780061128800ae
:10229c00608120008040eb00014878000080fa004b
:1022ac00000006000200fa00000f78001e00780003
:1022bc00f3ff07000080fa00000006000000fa009f
:1022cc00601280000080fa00000006000000fa0096
:1022dc00faff07000080fa00000006000000fa0078
:1022ec00004080000000e800004088000080fa00f8
:1022fc00000006000000fa00608120008040eb0026
:10230c00014878009460a80051e2a8000080fa000f
:10231c00000006000000fa00f6ff07000080fa003b
:10232c00000006000000fa0051e2a9009460a90028
:10233c000080fa00000006000000fa00f9ff070018
:10234c000080fa00000006000200fa006081200004
:10235c00104f78001e4078000004e00003003200ab
:10236c00608120008040eb00014878001e4078001e
:10237c000080fa00000006000000fa00f2ff0700df
:10238c000080fa00000006000000fa0070812000b6
:10239c00104078000080fa00000006000000fa00ef
:1023ac00f9ff07000080fa00000006000000fa00a8
:1023bc00708120008040eb00014878000080fa001a
:1023cc00000006000000fa00f8ff07000080fa0089
:1023dc00000006000000fa00a0002000200c88007d
:1023ec0050002000000c8800000e2000700c8800ab
:1023fc00f0102000500c88008821ef00f000200025
:10240c00900c880001088000f00b20000081600017
:10241c006004200071052000031020008049780022
:10242c008149780082497800f11e8000f00f2c0061
:10243c00808060000020210001007000f01e8800e8
:10244c00011f800000fc2f00008060001001b30011
:10245c00001f8800011f8000f00f2c00808060009e
:10246c000000210001007000001f8800111f800077
:10247c00f00f2c008080600000f020000100700044
:10248c00101f8800211f800000fc2f0000806000be
:10249c00e000b300201f8800211f8000f00f2c00eb
:1024ac008080600000d0200001007000201f880098
:1024bc00010880000004200001017000600420006d
:1024cc0071052000031020008049780081497800b4
:0c24dc00824978000080fa000000060031
:020000040000fa
:1024e8001608000002000000800000000808000034
:1024f80002000000800000000a080000020000003e
:10250800800000000c0800000200000080000000ad
:102518000e08000002000000800000001008000003
:102528000200000080000000120800000200000005
:102538008000000014080000020000008000000075
:1025480000080000080000008000000000000000f3
:020000040000fa
:102558000000fa000b0007009fff070010000700ab
:1025680011fe07001efd07002bfc070038fb0700c3
:1025780045fa070052f90700fcfe07000080fa0040
:10258800000006000000fa00000023001008880080
:102598000621ef000021a9000080fa0000000600d3
:1025a8000000fa002005800000c0a00000d0a100b3
:1025b80000e0a100200588000080fa000000060065
:020000040000fa
:020000040001f9
:0457f000ffff0000b7
:020000040000fa
:020000040001f9
:0457f400fffe0000b4
:020000040000fa
:020000040001f9
:0457f8009fb8000056
:020000040000fa
:020000040001f9
:0457fc00ff3f00006b
:00000001FF
